{
  "_format": "hh-sol-artifact-1",
  "contractName": "ConfidentialPropertyValuation",
  "sourceName": "contracts/ConfidentialPropertyValuation.sol",
  "abi": [
    {
      "inputs": [
        {
          "internalType": "address[]",
          "name": "_pauserAddresses",
          "type": "address[]"
        },
        {
          "internalType": "uint256",
          "name": "_kmsGeneration",
          "type": "uint256"
        }
      ],
      "stateMutability": "nonpayable",
      "type": "constructor"
    },
    {
      "anonymous": false,
      "inputs": [
        {
          "indexed": true,
          "internalType": "address",
          "name": "by",
          "type": "address"
        },
        {
          "indexed": false,
          "internalType": "uint256",
          "name": "timestamp",
          "type": "uint256"
        }
      ],
      "name": "ContractPaused",
      "type": "event"
    },
    {
      "anonymous": false,
      "inputs": [
        {
          "indexed": true,
          "internalType": "address",
          "name": "by",
          "type": "address"
        },
        {
          "indexed": false,
          "internalType": "uint256",
          "name": "timestamp",
          "type": "uint256"
        }
      ],
      "name": "ContractUnpaused",
      "type": "event"
    },
    {
      "anonymous": false,
      "inputs": [
        {
          "indexed": true,
          "internalType": "uint256",
          "name": "requestId",
          "type": "uint256"
        },
        {
          "indexed": true,
          "internalType": "address",
          "name": "requester",
          "type": "address"
        },
        {
          "indexed": false,
          "internalType": "uint256",
          "name": "kmsGeneration",
          "type": "uint256"
        },
        {
          "indexed": false,
          "internalType": "bytes32",
          "name": "encryptedValue",
          "type": "bytes32"
        },
        {
          "indexed": false,
          "internalType": "uint256",
          "name": "timestamp",
          "type": "uint256"
        }
      ],
      "name": "DecryptionRequested",
      "type": "event"
    },
    {
      "anonymous": false,
      "inputs": [
        {
          "indexed": true,
          "internalType": "uint256",
          "name": "requestId",
          "type": "uint256"
        },
        {
          "indexed": true,
          "internalType": "address",
          "name": "kmsNode",
          "type": "address"
        },
        {
          "indexed": false,
          "internalType": "bytes",
          "name": "encryptedShare",
          "type": "bytes"
        },
        {
          "indexed": false,
          "internalType": "bytes",
          "name": "signature",
          "type": "bytes"
        },
        {
          "indexed": false,
          "internalType": "uint256",
          "name": "timestamp",
          "type": "uint256"
        }
      ],
      "name": "DecryptionResponse",
      "type": "event"
    },
    {
      "anonymous": false,
      "inputs": [
        {
          "indexed": false,
          "internalType": "uint256",
          "name": "oldGeneration",
          "type": "uint256"
        },
        {
          "indexed": false,
          "internalType": "uint256",
          "name": "newGeneration",
          "type": "uint256"
        }
      ],
      "name": "KmsGenerationUpdated",
      "type": "event"
    },
    {
      "anonymous": false,
      "inputs": [
        {
          "indexed": true,
          "internalType": "address",
          "name": "pauser",
          "type": "address"
        },
        {
          "indexed": false,
          "internalType": "uint256",
          "name": "timestamp",
          "type": "uint256"
        }
      ],
      "name": "PauserAdded",
      "type": "event"
    },
    {
      "anonymous": false,
      "inputs": [
        {
          "indexed": true,
          "internalType": "address",
          "name": "pauser",
          "type": "address"
        },
        {
          "indexed": false,
          "internalType": "uint256",
          "name": "timestamp",
          "type": "uint256"
        }
      ],
      "name": "PauserRemoved",
      "type": "event"
    },
    {
      "anonymous": false,
      "inputs": [
        {
          "indexed": true,
          "internalType": "uint256",
          "name": "propertyId",
          "type": "uint256"
        },
        {
          "indexed": true,
          "internalType": "address",
          "name": "owner",
          "type": "address"
        }
      ],
      "name": "PropertyRegistered",
      "type": "event"
    },
    {
      "anonymous": false,
      "inputs": [
        {
          "indexed": true,
          "internalType": "uint256",
          "name": "valuationId",
          "type": "uint256"
        },
        {
          "indexed": false,
          "internalType": "uint64",
          "name": "value",
          "type": "uint64"
        },
        {
          "indexed": false,
          "internalType": "uint32",
          "name": "confidence",
          "type": "uint32"
        }
      ],
      "name": "ValuationRevealed",
      "type": "event"
    },
    {
      "anonymous": false,
      "inputs": [
        {
          "indexed": true,
          "internalType": "uint256",
          "name": "valuationId",
          "type": "uint256"
        },
        {
          "indexed": true,
          "internalType": "uint256",
          "name": "propertyId",
          "type": "uint256"
        },
        {
          "indexed": true,
          "internalType": "address",
          "name": "valuator",
          "type": "address"
        }
      ],
      "name": "ValuationSubmitted",
      "type": "event"
    },
    {
      "anonymous": false,
      "inputs": [
        {
          "indexed": true,
          "internalType": "address",
          "name": "valuator",
          "type": "address"
        }
      ],
      "name": "ValuatorAuthorized",
      "type": "event"
    },
    {
      "anonymous": false,
      "inputs": [
        {
          "indexed": true,
          "internalType": "address",
          "name": "valuator",
          "type": "address"
        }
      ],
      "name": "ValuatorRevoked",
      "type": "event"
    },
    {
      "inputs": [
        {
          "internalType": "address",
          "name": "_pauser",
          "type": "address"
        }
      ],
      "name": "addPauser",
      "outputs": [],
      "stateMutability": "nonpayable",
      "type": "function"
    },
    {
      "inputs": [
        {
          "internalType": "address",
          "name": "valuator",
          "type": "address"
        }
      ],
      "name": "authorizeValuator",
      "outputs": [],
      "stateMutability": "nonpayable",
      "type": "function"
    },
    {
      "inputs": [
        {
          "internalType": "address",
          "name": "",
          "type": "address"
        }
      ],
      "name": "authorizedValuators",
      "outputs": [
        {
          "internalType": "bool",
          "name": "",
          "type": "bool"
        }
      ],
      "stateMutability": "view",
      "type": "function"
    },
    {
      "inputs": [
        {
          "internalType": "uint256",
          "name": "propertyId",
          "type": "uint256"
        }
      ],
      "name": "calculateAverageValuation",
      "outputs": [
        {
          "internalType": "bool",
          "name": "hasRevealed",
          "type": "bool"
        },
        {
          "internalType": "uint64",
          "name": "averageValue",
          "type": "uint64"
        },
        {
          "internalType": "uint32",
          "name": "averageConfidence",
          "type": "uint32"
        },
        {
          "internalType": "uint256",
          "name": "valuationCount",
          "type": "uint256"
        }
      ],
      "stateMutability": "view",
      "type": "function"
    },
    {
      "inputs": [
        {
          "internalType": "uint256",
          "name": "propertyId",
          "type": "uint256"
        }
      ],
      "name": "deactivateProperty",
      "outputs": [],
      "stateMutability": "nonpayable",
      "type": "function"
    },
    {
      "inputs": [],
      "name": "decryptionRequestCounter",
      "outputs": [
        {
          "internalType": "uint256",
          "name": "",
          "type": "uint256"
        }
      ],
      "stateMutability": "view",
      "type": "function"
    },
    {
      "inputs": [
        {
          "internalType": "uint256",
          "name": "",
          "type": "uint256"
        }
      ],
      "name": "decryptionRequests",
      "outputs": [
        {
          "internalType": "uint256",
          "name": "requestId",
          "type": "uint256"
        },
        {
          "internalType": "address",
          "name": "requester",
          "type": "address"
        },
        {
          "internalType": "bytes32",
          "name": "encryptedValue",
          "type": "bytes32"
        },
        {
          "internalType": "uint256",
          "name": "timestamp",
          "type": "uint256"
        },
        {
          "internalType": "bool",
          "name": "fulfilled",
          "type": "bool"
        },
        {
          "internalType": "uint256",
          "name": "kmsGeneration",
          "type": "uint256"
        }
      ],
      "stateMutability": "view",
      "type": "function"
    },
    {
      "inputs": [],
      "name": "emergencyPause",
      "outputs": [],
      "stateMutability": "nonpayable",
      "type": "function"
    },
    {
      "inputs": [
        {
          "internalType": "uint256",
          "name": "_requestId",
          "type": "uint256"
        }
      ],
      "name": "getDecryptionRequestInfo",
      "outputs": [
        {
          "internalType": "address",
          "name": "requester",
          "type": "address"
        },
        {
          "internalType": "bytes32",
          "name": "encryptedValue",
          "type": "bytes32"
        },
        {
          "internalType": "uint256",
          "name": "timestamp",
          "type": "uint256"
        },
        {
          "internalType": "bool",
          "name": "fulfilled",
          "type": "bool"
        },
        {
          "internalType": "uint256",
          "name": "generationUsed",
          "type": "uint256"
        }
      ],
      "stateMutability": "view",
      "type": "function"
    },
    {
      "inputs": [
        {
          "internalType": "uint256",
          "name": "valuationId",
          "type": "uint256"
        }
      ],
      "name": "getEncryptedValuation",
      "outputs": [
        {
          "internalType": "bytes32",
          "name": "encryptedValue",
          "type": "bytes32"
        },
        {
          "internalType": "bytes32",
          "name": "encryptedConfidence",
          "type": "bytes32"
        }
      ],
      "stateMutability": "view",
      "type": "function"
    },
    {
      "inputs": [
        {
          "internalType": "address",
          "name": "propertyOwner",
          "type": "address"
        }
      ],
      "name": "getOwnerProperties",
      "outputs": [
        {
          "internalType": "uint256[]",
          "name": "",
          "type": "uint256[]"
        }
      ],
      "stateMutability": "view",
      "type": "function"
    },
    {
      "inputs": [
        {
          "internalType": "uint256",
          "name": "_index",
          "type": "uint256"
        }
      ],
      "name": "getPauserAtIndex",
      "outputs": [
        {
          "internalType": "address",
          "name": "",
          "type": "address"
        }
      ],
      "stateMutability": "view",
      "type": "function"
    },
    {
      "inputs": [],
      "name": "getPauserCount",
      "outputs": [
        {
          "internalType": "uint256",
          "name": "",
          "type": "uint256"
        }
      ],
      "stateMutability": "view",
      "type": "function"
    },
    {
      "inputs": [
        {
          "internalType": "uint256",
          "name": "propertyId",
          "type": "uint256"
        }
      ],
      "name": "getPropertyInfo",
      "outputs": [
        {
          "internalType": "bool",
          "name": "isActive",
          "type": "bool"
        },
        {
          "internalType": "uint256",
          "name": "timestamp",
          "type": "uint256"
        },
        {
          "internalType": "uint256",
          "name": "valuationCount",
          "type": "uint256"
        }
      ],
      "stateMutability": "view",
      "type": "function"
    },
    {
      "inputs": [
        {
          "internalType": "uint256",
          "name": "propertyId",
          "type": "uint256"
        }
      ],
      "name": "getPropertyValuations",
      "outputs": [
        {
          "internalType": "uint256[]",
          "name": "",
          "type": "uint256[]"
        }
      ],
      "stateMutability": "view",
      "type": "function"
    },
    {
      "inputs": [
        {
          "internalType": "uint256",
          "name": "valuationId",
          "type": "uint256"
        }
      ],
      "name": "getValuationInfo",
      "outputs": [
        {
          "internalType": "uint256",
          "name": "propertyId",
          "type": "uint256"
        },
        {
          "internalType": "address",
          "name": "valuator",
          "type": "address"
        },
        {
          "internalType": "uint256",
          "name": "timestamp",
          "type": "uint256"
        },
        {
          "internalType": "bool",
          "name": "isRevealed",
          "type": "bool"
        },
        {
          "internalType": "uint64",
          "name": "revealedValue",
          "type": "uint64"
        },
        {
          "internalType": "uint32",
          "name": "revealedConfidence",
          "type": "uint32"
        }
      ],
      "stateMutability": "view",
      "type": "function"
    },
    {
      "inputs": [],
      "name": "isContractPaused",
      "outputs": [
        {
          "internalType": "bool",
          "name": "",
          "type": "bool"
        }
      ],
      "stateMutability": "view",
      "type": "function"
    },
    {
      "inputs": [],
      "name": "isPaused",
      "outputs": [
        {
          "internalType": "bool",
          "name": "",
          "type": "bool"
        }
      ],
      "stateMutability": "view",
      "type": "function"
    },
    {
      "inputs": [
        {
          "internalType": "address",
          "name": "_address",
          "type": "address"
        }
      ],
      "name": "isPauser",
      "outputs": [
        {
          "internalType": "bool",
          "name": "",
          "type": "bool"
        }
      ],
      "stateMutability": "view",
      "type": "function"
    },
    {
      "inputs": [
        {
          "internalType": "address",
          "name": "",
          "type": "address"
        }
      ],
      "name": "isPauserAddress",
      "outputs": [
        {
          "internalType": "bool",
          "name": "",
          "type": "bool"
        }
      ],
      "stateMutability": "view",
      "type": "function"
    },
    {
      "inputs": [],
      "name": "isPublicDecryptAllowed",
      "outputs": [
        {
          "internalType": "bool",
          "name": "",
          "type": "bool"
        }
      ],
      "stateMutability": "view",
      "type": "function"
    },
    {
      "inputs": [],
      "name": "kmsGeneration",
      "outputs": [
        {
          "internalType": "uint256",
          "name": "",
          "type": "uint256"
        }
      ],
      "stateMutability": "view",
      "type": "function"
    },
    {
      "inputs": [
        {
          "internalType": "uint256",
          "name": "valuationId",
          "type": "uint256"
        },
        {
          "internalType": "uint64",
          "name": "revealedValue",
          "type": "uint64"
        },
        {
          "internalType": "uint32",
          "name": "revealedConfidence",
          "type": "uint32"
        }
      ],
      "name": "markValuationRevealed",
      "outputs": [],
      "stateMutability": "nonpayable",
      "type": "function"
    },
    {
      "inputs": [],
      "name": "nextPropertyId",
      "outputs": [
        {
          "internalType": "uint256",
          "name": "",
          "type": "uint256"
        }
      ],
      "stateMutability": "view",
      "type": "function"
    },
    {
      "inputs": [],
      "name": "nextValuationId",
      "outputs": [
        {
          "internalType": "uint256",
          "name": "",
          "type": "uint256"
        }
      ],
      "stateMutability": "view",
      "type": "function"
    },
    {
      "inputs": [],
      "name": "owner",
      "outputs": [
        {
          "internalType": "address",
          "name": "",
          "type": "address"
        }
      ],
      "stateMutability": "view",
      "type": "function"
    },
    {
      "inputs": [
        {
          "internalType": "address",
          "name": "",
          "type": "address"
        },
        {
          "internalType": "uint256",
          "name": "",
          "type": "uint256"
        }
      ],
      "name": "ownerProperties",
      "outputs": [
        {
          "internalType": "uint256",
          "name": "",
          "type": "uint256"
        }
      ],
      "stateMutability": "view",
      "type": "function"
    },
    {
      "inputs": [],
      "name": "pause",
      "outputs": [],
      "stateMutability": "nonpayable",
      "type": "function"
    },
    {
      "inputs": [
        {
          "internalType": "uint256",
          "name": "",
          "type": "uint256"
        }
      ],
      "name": "pauserAddresses",
      "outputs": [
        {
          "internalType": "address",
          "name": "",
          "type": "address"
        }
      ],
      "stateMutability": "view",
      "type": "function"
    },
    {
      "inputs": [
        {
          "internalType": "uint256",
          "name": "",
          "type": "uint256"
        }
      ],
      "name": "properties",
      "outputs": [
        {
          "internalType": "euint32",
          "name": "area",
          "type": "bytes32"
        },
        {
          "internalType": "euint32",
          "name": "bedrooms",
          "type": "bytes32"
        },
        {
          "internalType": "euint32",
          "name": "bathrooms",
          "type": "bytes32"
        },
        {
          "internalType": "euint32",
          "name": "yearBuilt",
          "type": "bytes32"
        },
        {
          "internalType": "euint32",
          "name": "floorLevel",
          "type": "bytes32"
        },
        {
          "internalType": "euint32",
          "name": "locationScore",
          "type": "bytes32"
        },
        {
          "internalType": "bool",
          "name": "isActive",
          "type": "bool"
        },
        {
          "internalType": "address",
          "name": "owner",
          "type": "address"
        },
        {
          "internalType": "uint256",
          "name": "timestamp",
          "type": "uint256"
        }
      ],
      "stateMutability": "view",
      "type": "function"
    },
    {
      "inputs": [
        {
          "internalType": "uint256",
          "name": "",
          "type": "uint256"
        },
        {
          "internalType": "uint256",
          "name": "",
          "type": "uint256"
        }
      ],
      "name": "propertyValuations",
      "outputs": [
        {
          "internalType": "uint256",
          "name": "",
          "type": "uint256"
        }
      ],
      "stateMutability": "view",
      "type": "function"
    },
    {
      "inputs": [],
      "name": "protocolId",
      "outputs": [
        {
          "internalType": "uint256",
          "name": "",
          "type": "uint256"
        }
      ],
      "stateMutability": "pure",
      "type": "function"
    },
    {
      "inputs": [
        {
          "internalType": "uint256",
          "name": "propertyId",
          "type": "uint256"
        }
      ],
      "name": "reactivateProperty",
      "outputs": [],
      "stateMutability": "nonpayable",
      "type": "function"
    },
    {
      "inputs": [
        {
          "internalType": "uint32",
          "name": "_area",
          "type": "uint32"
        },
        {
          "internalType": "uint32",
          "name": "_bedrooms",
          "type": "uint32"
        },
        {
          "internalType": "uint32",
          "name": "_bathrooms",
          "type": "uint32"
        },
        {
          "internalType": "uint32",
          "name": "_yearBuilt",
          "type": "uint32"
        },
        {
          "internalType": "uint32",
          "name": "_floorLevel",
          "type": "uint32"
        },
        {
          "internalType": "uint32",
          "name": "_locationScore",
          "type": "uint32"
        }
      ],
      "name": "registerProperty",
      "outputs": [
        {
          "internalType": "uint256",
          "name": "",
          "type": "uint256"
        }
      ],
      "stateMutability": "nonpayable",
      "type": "function"
    },
    {
      "inputs": [
        {
          "internalType": "address",
          "name": "_pauser",
          "type": "address"
        }
      ],
      "name": "removePauser",
      "outputs": [],
      "stateMutability": "nonpayable",
      "type": "function"
    },
    {
      "inputs": [
        {
          "internalType": "bytes32",
          "name": "_encryptedValue",
          "type": "bytes32"
        }
      ],
      "name": "requestDecryption",
      "outputs": [
        {
          "internalType": "uint256",
          "name": "",
          "type": "uint256"
        }
      ],
      "stateMutability": "nonpayable",
      "type": "function"
    },
    {
      "inputs": [
        {
          "internalType": "address",
          "name": "valuator",
          "type": "address"
        }
      ],
      "name": "revokeValuator",
      "outputs": [],
      "stateMutability": "nonpayable",
      "type": "function"
    },
    {
      "inputs": [
        {
          "internalType": "uint256",
          "name": "_requestId",
          "type": "uint256"
        },
        {
          "internalType": "bytes",
          "name": "_encryptedShare",
          "type": "bytes"
        },
        {
          "internalType": "bytes",
          "name": "_signature",
          "type": "bytes"
        }
      ],
      "name": "submitDecryptionResponse",
      "outputs": [],
      "stateMutability": "nonpayable",
      "type": "function"
    },
    {
      "inputs": [
        {
          "internalType": "uint256",
          "name": "propertyId",
          "type": "uint256"
        },
        {
          "internalType": "uint64",
          "name": "_estimatedValue",
          "type": "uint64"
        },
        {
          "internalType": "uint32",
          "name": "_confidenceScore",
          "type": "uint32"
        }
      ],
      "name": "submitValuation",
      "outputs": [
        {
          "internalType": "uint256",
          "name": "",
          "type": "uint256"
        }
      ],
      "stateMutability": "nonpayable",
      "type": "function"
    },
    {
      "inputs": [],
      "name": "unpause",
      "outputs": [],
      "stateMutability": "nonpayable",
      "type": "function"
    },
    {
      "inputs": [
        {
          "internalType": "uint256",
          "name": "_newGeneration",
          "type": "uint256"
        }
      ],
      "name": "updateKmsGeneration",
      "outputs": [],
      "stateMutability": "nonpayable",
      "type": "function"
    },
    {
      "inputs": [
        {
          "internalType": "uint256",
          "name": "",
          "type": "uint256"
        }
      ],
      "name": "valuations",
      "outputs": [
        {
          "internalType": "uint256",
          "name": "propertyId",
          "type": "uint256"
        },
        {
          "internalType": "euint64",
          "name": "estimatedValue",
          "type": "bytes32"
        },
        {
          "internalType": "euint32",
          "name": "confidenceScore",
          "type": "bytes32"
        },
        {
          "internalType": "address",
          "name": "valuator",
          "type": "address"
        },
        {
          "internalType": "uint256",
          "name": "timestamp",
          "type": "uint256"
        },
        {
          "internalType": "bool",
          "name": "isRevealed",
          "type": "bool"
        },
        {
          "internalType": "uint64",
          "name": "revealedValue",
          "type": "uint64"
        },
        {
          "internalType": "uint32",
          "name": "revealedConfidence",
          "type": "uint32"
        }
      ],
      "stateMutability": "view",
      "type": "function"
    }
  ],
  "bytecode": "0x608060405234801562000010575f80fd5b5060405162002a0138038062002a01833981016040819052620000339162000333565b620001af620000d3604080516080810182525f808252602082018190529181018290526060810191909152506040805160808101825273687820221192c5b662b25367f70076a37bc79b6c815273848b0066793bcc60346da1f49049357399b8d595602082015273a02cda4ca3a71d7c46997716f4283aa851c2881291810191909152731364cbbf2cdf5032c47d8226a6f6fbd2afcdacac606082015290565b80517f9e7b61f58c47dc699ac88507c4f5bb9f121c03808c5676a8078fe583e464970080546001600160a01b03199081166001600160a01b039384161790915560208301517f9e7b61f58c47dc699ac88507c4f5bb9f121c03808c5676a8078fe583e46497018054831691841691909117905560408301517f9e7b61f58c47dc699ac88507c4f5bb9f121c03808c5676a8078fe583e46497028054831691841691909117905560608301517f9e7b61f58c47dc699ac88507c4f5bb9f121c03808c5676a8078fe583e46497038054909216921691909117905550565b5f80546001600160a01b03191633178155600180805560025560038290556005805460ff1916905560078190555b8251811015620002fa576004838281518110620001fe57620001fe62000408565b6020908102919091018101518254600180820185555f9485529284200180546001600160a01b0319166001600160a01b039092169190911790558451909160069186908590811062000254576200025462000408565b60200260200101516001600160a01b03166001600160a01b031681526020019081526020015f205f6101000a81548160ff021916908315150217905550828181518110620002a657620002a662000408565b60200260200101516001600160a01b03167f0ad15ebec79c7d7b2785c7b5d8a7df78be193da0f65dff2d7c539a0992d53e3742604051620002e991815260200190565b60405180910390a2600101620001dd565b5050506200041c565b634e487b7160e01b5f52604160045260245ffd5b80516001600160a01b03811681146200032e575f80fd5b919050565b5f806040838503121562000345575f80fd5b82516001600160401b03808211156200035c575f80fd5b818501915085601f83011262000370575f80fd5b815160208282111562000387576200038762000303565b8160051b604051601f19603f83011681018181108682111715620003af57620003af62000303565b604052928352818301935084810182019289841115620003cd575f80fd5b948201945b83861015620003f657620003e68662000317565b85529482019493820193620003d2565b97909101519698969750505050505050565b634e487b7160e01b5f52603260045260245ffd5b6125d7806200042a5f395ff3fe608060405234801561000f575f80fd5b5060043610610255575f3560e01c80638456cb5911610140578063cb644897116100bf578063dff37f1f11610084578063dff37f1f1461074c578063e513af6014610774578063e73b171f1461077d578063f4ab292814610790578063f7b108081461079b578063fcc0d9591461084e575f80fd5b8063cb64489714610673578063cf04efcd14610686578063d3722d0114610699578063da1f12ab14610722578063dcaee5021461072a575f80fd5b8063b416eaa511610105578063b416eaa5146105ad578063bad0afaf146105c0578063c801d75814610641578063c84cd8c01461064d578063ca47a9f414610660575f80fd5b80638456cb591461056b5780638da5cb5b146105735780638f48bd5b1461058557806391136b6514610598578063b187bd26146105a0575f80fd5b806351858e27116101d75780636d8d2c6d1161019c5780636d8d2c6d146105035780637499888f1461050c57806374c5976c1461051f5780637adfe96e146105325780637ca28bc61461054557806382dc1ec414610558575f80fd5b806351858e27146103ac5780635d03d83e146103b457806363b2f3fa1461047557806366023f6c146104ce5780636b2c0f55146104f0575f80fd5b80633f4ba83a1161021d5780633f4ba83a1461030657806340f0a0551461030e578063423b86e41461033e57806346fbf68e1461035e5780634d47958414610399575f80fd5b8063026fef7f1461025957806329c041e514610289578063351f12a9146102d157806339500f34146102e857806339c4001d146102f1575b5f80fd5b61026c610267366004612130565b610861565b6040516001600160a01b0390911681526020015b60405180910390f35b61029c610297366004612130565b610889565b6040805194151585526001600160401b03909316602085015263ffffffff909116918301919091526060820152608001610280565b6102da60025481565b604051908152602001610280565b6102da60015481565b6103046102ff36600461215f565b610a9d565b005b610304610c44565b61032161031c366004612130565b610cee565b604080519315158452602084019290925290820152606001610280565b61035161034c366004612130565b610d63565b60405161028091906121a5565b61038961036c3660046121fe565b6001600160a01b03165f9081526006602052604090205460ff1690565b6040519015158152602001610280565b6102da6103a7366004612130565b610e14565b610304610f0a565b6104216103c2366004612130565b60096020525f90815260409020805460018201546002830154600384015460048501546005909501549394929391926001600160a01b039091169160ff81169061010081046001600160401b031690600160481b900463ffffffff1688565b604080519889526020890197909752958701949094526001600160a01b0390921660608601526080850152151560a08401526001600160401b031660c083015263ffffffff1660e082015261010001610280565b610488610483366004612130565b610f79565b604080519687526001600160a01b03909516602087015293850192909252151560608401526001600160401b0316608083015263ffffffff1660a082015260c001610280565b6103896104dc3660046121fe565b600a6020525f908152604090205460ff1681565b6103046104fe3660046121fe565b61106a565b6102da60075481565b61030461051a366004612262565b611225565b6102da61052d3660046122d5565b6112c4565b61026c610540366004612130565b6115e4565b610304610553366004612130565b61165a565b6103046105663660046121fe565b6116b4565b61030461181c565b5f5461026c906001600160a01b031681565b6102da610593366004612345565b61188e565b6004546102da565b6005546103899060ff1681565b6103046105bb366004612130565b6118b9565b61060d6105ce366004612130565b5f908152600d6020526040902060018101546002820154600383015460048401546005909401546001600160a01b03909316949193909260ff90911691565b604080516001600160a01b03909616865260208601949094529284019190915215156060830152608082015260a001610280565b60055460ff1615610389565b61030461065b366004612130565b611916565b61030461066e3660046121fe565b611984565b6103516106813660046121fe565b6119f8565b6102da61069436600461236d565b611a9b565b6106eb6106a7366004612130565b600d6020525f908152604090208054600182015460028301546003840154600485015460059095015493946001600160a01b03909316939192909160ff9091169086565b604080519687526001600160a01b0390951660208701529385019290925260608401521515608083015260a082015260c001610280565b6127116102da565b6103896107383660046121fe565b60066020525f908152604090205460ff1681565b61075f61075a366004612130565b611ab4565b60408051928352602083019190915201610280565b6102da60035481565b61030461078b3660046121fe565b611bb7565b60055460ff16610389565b6107ff6107a9366004612130565b60086020525f90815260409020805460018201546002830154600384015460048501546005860154600687015460079097015495969495939492939192909160ff82169161010090046001600160a01b03169089565b60408051998a5260208a0198909852968801959095526060870193909352608086019190915260a0850152151560c08401526001600160a01b031660e083015261010082015261012001610280565b6102da61085c36600461215f565b611c28565b60048181548110610870575f80fd5b5f918252602090912001546001600160a01b0316905081565b5f8181526008602052604081206006015481908190819060ff166108ea5760405162461bcd60e51b815260206004820152601360248201527250726f7065727479206e6f742061637469766560681b60448201526064015b60405180910390fd5b5f8581526008602052604090206006015461010090046001600160a01b031633148061091f57505f546001600160a01b031633145b61093b5760405162461bcd60e51b81526004016108e19061238d565b5f858152600c602090815260408083208054825181850281018501909352808352919290919083018282801561098e57602002820191905f5260205f20905b81548152602001906001019080831161097a575b5050505050905080515f036109af575f805f80945094509450945050610a96565b5f805f805b8451811015610a55575f60095f8784815181106109d3576109d36123b5565b602002602001015181526020019081526020015f209050806005015f9054906101000a900460ff1615610a4c576005810154610a1d9061010090046001600160401b0316866123dd565b6005820154909550610a3c90600160481b900463ffffffff16856123dd565b935082610a48816123f0565b9350505b506001016109b4565b50805f03610a73575f805f8651975097509750975050505050610a96565b6001610a7f8285612408565b610a898385612408565b9199509750955093505050505b9193509193565b60055460ff1615610ac05760405162461bcd60e51b81526004016108e190612427565b5f8381526009602052604090206004810154610aee5760405162461bcd60e51b81526004016108e190612453565b600581015460ff1615610b365760405162461bcd60e51b815260206004820152601060248201526f105b1c9958591e481c995d99585b195960821b60448201526064016108e1565b60038101546001600160a01b0316331480610b70575080545f9081526008602052604090206006015461010090046001600160a01b031633145b610bbc5760405162461bcd60e51b815260206004820152601860248201527f4e6f7420617574686f72697a656420746f2072657665616c000000000000000060448201526064016108e1565b60058101805463ffffffff8416600160481b810263ffffffff60481b196001600160401b038816610100810268ffffffffffffffffff1990951694909417600117161790925560408051918252602082019290925285917fd9b92154d69505a6383ff08383c5769d60836f3b0536386ffab112be112b3c9e910160405180910390a250505050565b5f546001600160a01b03163314610c6d5760405162461bcd60e51b81526004016108e19061238d565b60055460ff16610cac5760405162461bcd60e51b815260206004820152600a602482015269139bdd081c185d5cd95960b21b60448201526064016108e1565b6005805460ff1916905560405142815233907f107553d8191d85b405879cf752997865edd48d94e20bda4dd27223c94b31a7cc906020015b60405180910390a2565b5f8181526008602052604081206006015481908190849061010090046001600160a01b03163314610d315760405162461bcd60e51b81526004016108e190612480565b5050505f918252506008602090815260408083206006810154600790910154600c90935292205460ff90921692909190565b5f8181526008602052604090206006015460609061010090046001600160a01b0316331480610d9b57505f546001600160a01b031633145b610db75760405162461bcd60e51b81526004016108e19061238d565b5f828152600c602090815260409182902080548351818402810184019094528084529091830182828015610e0857602002820191905f5260205f20905b815481526020019060010190808311610df4575b50505050509050919050565b5f8060075f8154610e24906123f0565b91829055506040805160c0810182528281523360208083018281528385018981524260608087018281525f608089018181526003805460a08c019081528d8452600d8a52928c90209a518b55965160018b0180546001600160a01b0319166001600160a01b03909216919091179055945160028a0155905188860155925160048801805460ff19169115159190911790559151600590960195909555905485519081529182018990529381019290925292935083917f5b585d7dd6e029cb6fdb2ed1aab57d9595373d52232357d506198068a075e7d0910160405180910390a392915050565b335f9081526006602052604090205460ff16610f385760405162461bcd60e51b81526004016108e1906124ac565b6005805460ff1916600117905560405133907f80170b5fcdd2bf1e0660ef4b8851f86685f64d41b1a19de1471947ece8725aac90610ce49042815260200190565b5f81815260096020526040812060048101548291829182918291829190610fb25760405162461bcd60e51b81526004016108e190612453565b60038101546001600160a01b0316331480610fec575080545f9081526008602052604090206006015461010090046001600160a01b031633145b8061100057505f546001600160a01b031633145b61101c5760405162461bcd60e51b81526004016108e19061238d565b805460038201546004830154600590930154919a6001600160a01b03909116995091975060ff8116965061010081046001600160401b03169550600160481b900463ffffffff169350915050565b5f546001600160a01b031633146110935760405162461bcd60e51b81526004016108e19061238d565b6001600160a01b0381165f9081526006602052604090205460ff166110ca5760405162461bcd60e51b81526004016108e1906124ac565b6001600160a01b0381165f908152600660205260408120805460ff191690555b6004548110156111de57816001600160a01b031660048281548110611111576111116123b5565b5f918252602090912001546001600160a01b0316036111d6576004805461113a906001906124d2565b8154811061114a5761114a6123b5565b5f91825260209091200154600480546001600160a01b039092169183908110611175576111756123b5565b905f5260205f20015f6101000a8154816001600160a01b0302191690836001600160a01b0316021790555060048054806111b1576111b16124e5565b5f8281526020902081015f1990810180546001600160a01b03191690550190556111de565b6001016110ea565b50806001600160a01b03167f09d663ecc0eac31928bc933e50d7b947f6c93e150383c8c0b317c437a0f0a12d4260405161121a91815260200190565b60405180910390a250565b5f858152600d602052604090205485146112735760405162461bcd60e51b815260206004820152600f60248201526e125b9d985b1a59081c995c5d595cdd608a1b60448201526064016108e1565b336001600160a01b0316857f7c928c5fcc307a0be08cab90a20b1e1233adb2226579e4118fb62ee51801318f86868686426040516112b5959493929190612521565b60405180910390a35050505050565b6005545f9060ff16156112e95760405162461bcd60e51b81526004016108e190612427565b60648263ffffffff1611156113405760405162461bcd60e51b815260206004820152601c60248201527f4c6f636174696f6e2073636f7265206d75737420626520302d3130300000000060448201526064016108e1565b5f8763ffffffff16116113955760405162461bcd60e51b815260206004820152601b60248201527f41726561206d7573742062652067726561746572207468616e2030000000000060448201526064016108e1565b6107088463ffffffff16116113ec5760405162461bcd60e51b815260206004820152601c60248201527f59656172206275696c74206d757374206265207265616c69737469630000000060448201526064016108e1565b5f6113f688611fa0565b90505f61140288611fa0565b90505f61140e88611fa0565b90505f61141a88611fa0565b90505f61142688611fa0565b90505f61143288611fa0565b600180549192505f919082611446836123f0565b90915550604080516101208101825289815260208082018a81528284018a8152606084018a8152608085018a815260a086018a8152600160c088018181523360e08a0181815242610100808d019182525f8f815260088d528e81209d518e559a518d870155985160028d0155965160038c0155945160048b0155925160058a01555160068901805494516001600160a81b0319909516911515610100600160a81b031916919091176001600160a01b039094169095029290921790935590516007909501949094558152600b825292832080549283018155835290912001819055905061153287611fb8565b5061153c86611fb8565b5061154685611fb8565b5061155084611fb8565b5061155a83611fb8565b5061156482611fb8565b5061156f8733611fc7565b5061157a8633611fc7565b506115858533611fc7565b506115908433611fc7565b5061159b8333611fc7565b506115a68233611fc7565b50604051339082907ff16e2a0ca5373d3b3c5e53640bf2953ea25184f229ba20d421b5fc6a635e3945905f90a39d9c50505050505050505050505050565b6004545f90821061162d5760405162461bcd60e51b8152602060048201526013602482015272496e646578206f7574206f6620626f756e647360681b60448201526064016108e1565b60048281548110611640576116406123b5565b5f918252602090912001546001600160a01b031692915050565b5f81815260086020526040902060060154819061010090046001600160a01b031633146116995760405162461bcd60e51b81526004016108e190612480565b505f908152600860205260409020600601805460ff19169055565b5f546001600160a01b031633146116dd5760405162461bcd60e51b81526004016108e19061238d565b6001600160a01b03811661172c5760405162461bcd60e51b8152602060048201526016602482015275496e76616c696420706175736572206164647265737360501b60448201526064016108e1565b6001600160a01b0381165f9081526006602052604090205460ff16156117875760405162461bcd60e51b815260206004820152601060248201526f20b63932b0b23c9030903830bab9b2b960811b60448201526064016108e1565b6004805460018082019092557f8a35acfbc15ff81a39ae7d344fd709f28e8600b4aa8c65c6b64bfe7fe36bd19b0180546001600160a01b0319166001600160a01b0384169081179091555f81815260066020908152604091829020805460ff19169094179093555142815290917f0ad15ebec79c7d7b2785c7b5d8a7df78be193da0f65dff2d7c539a0992d53e37910161121a565b335f9081526006602052604090205460ff1661184a5760405162461bcd60e51b81526004016108e1906124ac565b60055460ff1615610f385760405162461bcd60e51b815260206004820152600e60248201526d105b1c9958591e481c185d5cd95960921b60448201526064016108e1565b600b602052815f5260405f2081815481106118a7575f80fd5b905f5260205f20015f91509150505481565b5f81815260086020526040902060060154819061010090046001600160a01b031633146118f85760405162461bcd60e51b81526004016108e190612480565b505f908152600860205260409020600601805460ff19166001179055565b5f546001600160a01b0316331461193f5760405162461bcd60e51b81526004016108e19061238d565b600380549082905560408051828152602081018490527f81a4fe1759d58af96859f5799571b46cb438e5215a188511956a062695eb027c910160405180910390a15050565b5f546001600160a01b031633146119ad5760405162461bcd60e51b81526004016108e19061238d565b6001600160a01b0381165f818152600a6020526040808220805460ff19166001179055517f3154b4784b7a606a4e8594e5c2aade1d60c2c2295f43c84e114d3c8bd30a3b089190a250565b6060336001600160a01b0383161480611a1a57505f546001600160a01b031633145b611a365760405162461bcd60e51b81526004016108e19061238d565b6001600160a01b0382165f908152600b602090815260409182902080548351818402810184019094528084529091830182828015610e0857602002820191905f5260205f2090815481526020019060010190808311610df45750505050509050919050565b600c602052815f5260405f2081815481106118a7575f80fd5b6005545f90819060ff1615611adb5760405162461bcd60e51b81526004016108e190612427565b5f8381526009602052604090206004810154611b095760405162461bcd60e51b81526004016108e190612453565b60038101546001600160a01b0316331480611b43575080545f9081526008602052604090206006015461010090046001600160a01b031633145b80611b5757505f546001600160a01b031633145b611ba35760405162461bcd60e51b815260206004820152601860248201527f4e6f7420617574686f72697a656420746f20616363657373000000000000000060448201526064016108e1565b600181015460028201549250925050915091565b5f546001600160a01b03163314611be05760405162461bcd60e51b81526004016108e19061238d565b6001600160a01b0381165f818152600a6020526040808220805460ff19169055517f825a89863a561066b5720d4aa7eb8a4db0ecc454d5febe7e9066ab8f9c1e88139190a250565b335f908152600a602052604081205460ff16611c865760405162461bcd60e51b815260206004820152601760248201527f4e6f7420617574686f72697a65642076616c7561746f7200000000000000000060448201526064016108e1565b60055460ff1615611ca95760405162461bcd60e51b81526004016108e190612427565b5f8481526008602052604090206006015460ff16611cff5760405162461bcd60e51b815260206004820152601360248201527250726f7065727479206e6f742061637469766560681b60448201526064016108e1565b60648263ffffffff161115611d565760405162461bcd60e51b815260206004820152601e60248201527f436f6e666964656e63652073636f7265206d75737420626520302d313030000060448201526064016108e1565b5f836001600160401b031611611dae5760405162461bcd60e51b815260206004820152601a60248201527f56616c756174696f6e206d75737420626520706f73697469766500000000000060448201526064016108e1565b5f611db884611fd9565b90505f611dc484611fa0565b600280549192505f919082611dd8836123f0565b909155506040805161010080820183528a82526020808301888152838501888152336060860190815242608087019081525f60a0880181815260c0890182815260e08a018381528c8452600989528b84209a518b5596516001808c0191909155955160028b0155935160038a0180546001600160a01b0319166001600160a01b03909216919091179055915160048901559051600590970180549251945168ffffffffffffffffff1990931697151568ffffffffffffffff001916979097176001600160401b039094169095029290921763ffffffff60481b1916600160481b63ffffffff90931692909202919091179093558b8252600c815292812080549283018155815291909120018190559050611ef183611fb8565b50611efb82611fb8565b50611f068333611fc7565b50611f118233611fc7565b505f87815260086020526040902060060154611f3c90849061010090046001600160a01b0316611fc7565b505f87815260086020526040902060060154611f6790839061010090046001600160a01b0316611fc7565b506040513390889083907fd5353fa3ef94edce12f242792ba11c2031e4c4609965b830a9d193437b63f342905f90a49695505050505050565b5f611fb28263ffffffff166004611fea565b92915050565b5f611fc382306120a7565b5090565b5f611fd283836120a7565b5090919050565b5f611fb2826001600160401b031660055b7f9e7b61f58c47dc699ac88507c4f5bb9f121c03808c5676a8078fe583e464970154604051639cd07acb60e01b81525f917f9e7b61f58c47dc699ac88507c4f5bb9f121c03808c5676a8078fe583e4649700916001600160a01b0390911690639cd07acb9061205f908790879060040161255a565b6020604051808303815f875af115801561207b573d5f803e3d5ffd5b505050506040513d601f19601f8201168201806040525081019061209f919061258a565b949350505050565b5f7f9e7b61f58c47dc699ac88507c4f5bb9f121c03808c5676a8078fe583e46497008054604051635ca4b5b160e11b8152600481018690526001600160a01b03858116602483015292935091169063b9496b62906044015f604051808303815f87803b158015612115575f80fd5b505af1158015612127573d5f803e3d5ffd5b50505050505050565b5f60208284031215612140575f80fd5b5035919050565b803563ffffffff8116811461215a575f80fd5b919050565b5f805f60608486031215612171575f80fd5b8335925060208401356001600160401b038116811461218e575f80fd5b915061219c60408501612147565b90509250925092565b602080825282518282018190525f9190848201906040850190845b818110156121dc578351835292840192918401916001016121c0565b50909695505050505050565b80356001600160a01b038116811461215a575f80fd5b5f6020828403121561220e575f80fd5b612217826121e8565b9392505050565b5f8083601f84011261222e575f80fd5b5081356001600160401b03811115612244575f80fd5b60208301915083602082850101111561225b575f80fd5b9250929050565b5f805f805f60608688031215612276575f80fd5b8535945060208601356001600160401b0380821115612293575f80fd5b61229f89838a0161221e565b909650945060408801359150808211156122b7575f80fd5b506122c48882890161221e565b969995985093965092949392505050565b5f805f805f8060c087890312156122ea575f80fd5b6122f387612147565b955061230160208801612147565b945061230f60408801612147565b935061231d60608801612147565b925061232b60808801612147565b915061233960a08801612147565b90509295509295509295565b5f8060408385031215612356575f80fd5b61235f836121e8565b946020939093013593505050565b5f806040838503121561237e575f80fd5b50508035926020909101359150565b6020808252600e908201526d139bdd08185d5d1a1bdc9a5e995960921b604082015260600190565b634e487b7160e01b5f52603260045260245ffd5b634e487b7160e01b5f52601160045260245ffd5b80820180821115611fb257611fb26123c9565b5f60018201612401576124016123c9565b5060010190565b5f8261242257634e487b7160e01b5f52601260045260245ffd5b500490565b60208082526012908201527110dbdb9d1c9858dd081a5cc81c185d5cd95960721b604082015260600190565b60208082526013908201527215985b1d585d1a5bdb881b9bdd08199bdd5b99606a1b604082015260600190565b6020808252601290820152712737ba10383937b832b93a3c9037bbb732b960711b604082015260600190565b6020808252600c908201526b2737ba1030903830bab9b2b960a11b604082015260600190565b81810381811115611fb257611fb26123c9565b634e487b7160e01b5f52603160045260245ffd5b81835281816020850137505f828201602090810191909152601f909101601f19169091010190565b606081525f6125346060830187896124f9565b82810360208401526125478186886124f9565b9150508260408301529695505050505050565b828152604081016054831061257d57634e487b7160e01b5f52602160045260245ffd5b8260208301529392505050565b5f6020828403121561259a575f80fd5b505191905056fea2646970667358221220fd831fbc196f0438db3d6f7ac73395488fcd1a910c7db97ccff1cadf6fda295b64736f6c63430008180033",
  "linkReferences": {},
  "deployedLinkReferences": {}
}