{
  "_format": "hh-sol-artifact-1",
  "contractName": "ConfidentialPropertyValuation",
  "sourceName": "contracts/ConfidentialPropertyValuation.sol",
  "abi": [
    {
      "inputs": [
        {
          "internalType": "address[]",
          "name": "_pauserAddresses",
          "type": "address[]"
        },
        {
          "internalType": "uint256",
          "name": "_kmsGeneration",
          "type": "uint256"
        }
      ],
      "stateMutability": "nonpayable",
      "type": "constructor"
    },
    {
      "anonymous": false,
      "inputs": [
        {
          "indexed": true,
          "internalType": "address",
          "name": "by",
          "type": "address"
        },
        {
          "indexed": false,
          "internalType": "uint256",
          "name": "timestamp",
          "type": "uint256"
        }
      ],
      "name": "ContractPaused",
      "type": "event"
    },
    {
      "anonymous": false,
      "inputs": [
        {
          "indexed": true,
          "internalType": "address",
          "name": "by",
          "type": "address"
        },
        {
          "indexed": false,
          "internalType": "uint256",
          "name": "timestamp",
          "type": "uint256"
        }
      ],
      "name": "ContractUnpaused",
      "type": "event"
    },
    {
      "anonymous": false,
      "inputs": [
        {
          "indexed": true,
          "internalType": "uint256",
          "name": "requestId",
          "type": "uint256"
        },
        {
          "indexed": true,
          "internalType": "address",
          "name": "requester",
          "type": "address"
        },
        {
          "indexed": false,
          "internalType": "uint256",
          "name": "kmsGeneration",
          "type": "uint256"
        },
        {
          "indexed": false,
          "internalType": "bytes32",
          "name": "encryptedValue",
          "type": "bytes32"
        },
        {
          "indexed": false,
          "internalType": "uint256",
          "name": "timestamp",
          "type": "uint256"
        }
      ],
      "name": "DecryptionRequested",
      "type": "event"
    },
    {
      "anonymous": false,
      "inputs": [
        {
          "indexed": true,
          "internalType": "uint256",
          "name": "requestId",
          "type": "uint256"
        },
        {
          "indexed": true,
          "internalType": "address",
          "name": "kmsNode",
          "type": "address"
        },
        {
          "indexed": false,
          "internalType": "bytes",
          "name": "encryptedShare",
          "type": "bytes"
        },
        {
          "indexed": false,
          "internalType": "bytes",
          "name": "signature",
          "type": "bytes"
        },
        {
          "indexed": false,
          "internalType": "uint256",
          "name": "timestamp",
          "type": "uint256"
        }
      ],
      "name": "DecryptionResponse",
      "type": "event"
    },
    {
      "anonymous": false,
      "inputs": [
        {
          "indexed": false,
          "internalType": "uint256",
          "name": "oldGeneration",
          "type": "uint256"
        },
        {
          "indexed": false,
          "internalType": "uint256",
          "name": "newGeneration",
          "type": "uint256"
        }
      ],
      "name": "KmsGenerationUpdated",
      "type": "event"
    },
    {
      "anonymous": false,
      "inputs": [
        {
          "indexed": true,
          "internalType": "address",
          "name": "pauser",
          "type": "address"
        },
        {
          "indexed": false,
          "internalType": "uint256",
          "name": "timestamp",
          "type": "uint256"
        }
      ],
      "name": "PauserAdded",
      "type": "event"
    },
    {
      "anonymous": false,
      "inputs": [
        {
          "indexed": true,
          "internalType": "address",
          "name": "pauser",
          "type": "address"
        },
        {
          "indexed": false,
          "internalType": "uint256",
          "name": "timestamp",
          "type": "uint256"
        }
      ],
      "name": "PauserRemoved",
      "type": "event"
    },
    {
      "anonymous": false,
      "inputs": [
        {
          "indexed": true,
          "internalType": "uint256",
          "name": "propertyId",
          "type": "uint256"
        },
        {
          "indexed": true,
          "internalType": "address",
          "name": "owner",
          "type": "address"
        }
      ],
      "name": "PropertyRegistered",
      "type": "event"
    },
    {
      "anonymous": false,
      "inputs": [
        {
          "indexed": true,
          "internalType": "uint256",
          "name": "valuationId",
          "type": "uint256"
        },
        {
          "indexed": false,
          "internalType": "uint64",
          "name": "value",
          "type": "uint64"
        },
        {
          "indexed": false,
          "internalType": "uint32",
          "name": "confidence",
          "type": "uint32"
        }
      ],
      "name": "ValuationRevealed",
      "type": "event"
    },
    {
      "anonymous": false,
      "inputs": [
        {
          "indexed": true,
          "internalType": "uint256",
          "name": "valuationId",
          "type": "uint256"
        },
        {
          "indexed": true,
          "internalType": "uint256",
          "name": "propertyId",
          "type": "uint256"
        },
        {
          "indexed": true,
          "internalType": "address",
          "name": "valuator",
          "type": "address"
        }
      ],
      "name": "ValuationSubmitted",
      "type": "event"
    },
    {
      "anonymous": false,
      "inputs": [
        {
          "indexed": true,
          "internalType": "address",
          "name": "valuator",
          "type": "address"
        }
      ],
      "name": "ValuatorAuthorized",
      "type": "event"
    },
    {
      "anonymous": false,
      "inputs": [
        {
          "indexed": true,
          "internalType": "address",
          "name": "valuator",
          "type": "address"
        }
      ],
      "name": "ValuatorRevoked",
      "type": "event"
    },
    {
      "inputs": [],
      "name": "MAX_OPERATIONS_PER_PERIOD",
      "outputs": [
        {
          "internalType": "uint256",
          "name": "",
          "type": "uint256"
        }
      ],
      "stateMutability": "view",
      "type": "function"
    },
    {
      "inputs": [],
      "name": "MAX_PAUSERS",
      "outputs": [
        {
          "internalType": "uint256",
          "name": "",
          "type": "uint256"
        }
      ],
      "stateMutability": "view",
      "type": "function"
    },
    {
      "inputs": [],
      "name": "MAX_PROPERTIES_PER_OWNER",
      "outputs": [
        {
          "internalType": "uint256",
          "name": "",
          "type": "uint256"
        }
      ],
      "stateMutability": "view",
      "type": "function"
    },
    {
      "inputs": [],
      "name": "MAX_VALUATIONS_PER_PROPERTY",
      "outputs": [
        {
          "internalType": "uint256",
          "name": "",
          "type": "uint256"
        }
      ],
      "stateMutability": "view",
      "type": "function"
    },
    {
      "inputs": [],
      "name": "RATE_LIMIT_PERIOD",
      "outputs": [
        {
          "internalType": "uint256",
          "name": "",
          "type": "uint256"
        }
      ],
      "stateMutability": "view",
      "type": "function"
    },
    {
      "inputs": [
        {
          "internalType": "address",
          "name": "_pauser",
          "type": "address"
        }
      ],
      "name": "addPauser",
      "outputs": [],
      "stateMutability": "nonpayable",
      "type": "function"
    },
    {
      "inputs": [
        {
          "internalType": "address",
          "name": "valuator",
          "type": "address"
        }
      ],
      "name": "authorizeValuator",
      "outputs": [],
      "stateMutability": "nonpayable",
      "type": "function"
    },
    {
      "inputs": [
        {
          "internalType": "address",
          "name": "",
          "type": "address"
        }
      ],
      "name": "authorizedValuators",
      "outputs": [
        {
          "internalType": "bool",
          "name": "",
          "type": "bool"
        }
      ],
      "stateMutability": "view",
      "type": "function"
    },
    {
      "inputs": [
        {
          "internalType": "uint256",
          "name": "propertyId",
          "type": "uint256"
        }
      ],
      "name": "calculateAverageValuation",
      "outputs": [
        {
          "internalType": "bool",
          "name": "hasRevealed",
          "type": "bool"
        },
        {
          "internalType": "uint64",
          "name": "averageValue",
          "type": "uint64"
        },
        {
          "internalType": "uint32",
          "name": "averageConfidence",
          "type": "uint32"
        },
        {
          "internalType": "uint256",
          "name": "valuationCount",
          "type": "uint256"
        }
      ],
      "stateMutability": "view",
      "type": "function"
    },
    {
      "inputs": [
        {
          "internalType": "uint256",
          "name": "propertyId",
          "type": "uint256"
        }
      ],
      "name": "deactivateProperty",
      "outputs": [],
      "stateMutability": "nonpayable",
      "type": "function"
    },
    {
      "inputs": [],
      "name": "decryptionRequestCounter",
      "outputs": [
        {
          "internalType": "uint256",
          "name": "",
          "type": "uint256"
        }
      ],
      "stateMutability": "view",
      "type": "function"
    },
    {
      "inputs": [
        {
          "internalType": "uint256",
          "name": "",
          "type": "uint256"
        }
      ],
      "name": "decryptionRequests",
      "outputs": [
        {
          "internalType": "uint256",
          "name": "requestId",
          "type": "uint256"
        },
        {
          "internalType": "address",
          "name": "requester",
          "type": "address"
        },
        {
          "internalType": "bytes32",
          "name": "encryptedValue",
          "type": "bytes32"
        },
        {
          "internalType": "uint256",
          "name": "timestamp",
          "type": "uint256"
        },
        {
          "internalType": "bool",
          "name": "fulfilled",
          "type": "bool"
        },
        {
          "internalType": "uint256",
          "name": "kmsGeneration",
          "type": "uint256"
        }
      ],
      "stateMutability": "view",
      "type": "function"
    },
    {
      "inputs": [],
      "name": "emergencyPause",
      "outputs": [],
      "stateMutability": "nonpayable",
      "type": "function"
    },
    {
      "inputs": [
        {
          "internalType": "uint256",
          "name": "_requestId",
          "type": "uint256"
        }
      ],
      "name": "getDecryptionRequestInfo",
      "outputs": [
        {
          "internalType": "address",
          "name": "requester",
          "type": "address"
        },
        {
          "internalType": "bytes32",
          "name": "encryptedValue",
          "type": "bytes32"
        },
        {
          "internalType": "uint256",
          "name": "timestamp",
          "type": "uint256"
        },
        {
          "internalType": "bool",
          "name": "fulfilled",
          "type": "bool"
        },
        {
          "internalType": "uint256",
          "name": "generationUsed",
          "type": "uint256"
        }
      ],
      "stateMutability": "view",
      "type": "function"
    },
    {
      "inputs": [
        {
          "internalType": "uint256",
          "name": "valuationId",
          "type": "uint256"
        }
      ],
      "name": "getEncryptedValuation",
      "outputs": [
        {
          "internalType": "bytes32",
          "name": "encryptedValue",
          "type": "bytes32"
        },
        {
          "internalType": "bytes32",
          "name": "encryptedConfidence",
          "type": "bytes32"
        }
      ],
      "stateMutability": "view",
      "type": "function"
    },
    {
      "inputs": [
        {
          "internalType": "address",
          "name": "propertyOwner",
          "type": "address"
        }
      ],
      "name": "getOwnerProperties",
      "outputs": [
        {
          "internalType": "uint256[]",
          "name": "",
          "type": "uint256[]"
        }
      ],
      "stateMutability": "view",
      "type": "function"
    },
    {
      "inputs": [
        {
          "internalType": "uint256",
          "name": "_index",
          "type": "uint256"
        }
      ],
      "name": "getPauserAtIndex",
      "outputs": [
        {
          "internalType": "address",
          "name": "",
          "type": "address"
        }
      ],
      "stateMutability": "view",
      "type": "function"
    },
    {
      "inputs": [],
      "name": "getPauserCount",
      "outputs": [
        {
          "internalType": "uint256",
          "name": "",
          "type": "uint256"
        }
      ],
      "stateMutability": "view",
      "type": "function"
    },
    {
      "inputs": [
        {
          "internalType": "uint256",
          "name": "propertyId",
          "type": "uint256"
        }
      ],
      "name": "getPropertyInfo",
      "outputs": [
        {
          "internalType": "bool",
          "name": "isActive",
          "type": "bool"
        },
        {
          "internalType": "uint256",
          "name": "timestamp",
          "type": "uint256"
        },
        {
          "internalType": "uint256",
          "name": "valuationCount",
          "type": "uint256"
        }
      ],
      "stateMutability": "view",
      "type": "function"
    },
    {
      "inputs": [
        {
          "internalType": "uint256",
          "name": "propertyId",
          "type": "uint256"
        }
      ],
      "name": "getPropertyValuations",
      "outputs": [
        {
          "internalType": "uint256[]",
          "name": "",
          "type": "uint256[]"
        }
      ],
      "stateMutability": "view",
      "type": "function"
    },
    {
      "inputs": [
        {
          "internalType": "uint256",
          "name": "valuationId",
          "type": "uint256"
        }
      ],
      "name": "getValuationInfo",
      "outputs": [
        {
          "internalType": "uint256",
          "name": "propertyId",
          "type": "uint256"
        },
        {
          "internalType": "address",
          "name": "valuator",
          "type": "address"
        },
        {
          "internalType": "uint256",
          "name": "timestamp",
          "type": "uint256"
        },
        {
          "internalType": "bool",
          "name": "isRevealed",
          "type": "bool"
        },
        {
          "internalType": "uint64",
          "name": "revealedValue",
          "type": "uint64"
        },
        {
          "internalType": "uint32",
          "name": "revealedConfidence",
          "type": "uint32"
        }
      ],
      "stateMutability": "view",
      "type": "function"
    },
    {
      "inputs": [],
      "name": "isContractPaused",
      "outputs": [
        {
          "internalType": "bool",
          "name": "",
          "type": "bool"
        }
      ],
      "stateMutability": "view",
      "type": "function"
    },
    {
      "inputs": [],
      "name": "isPaused",
      "outputs": [
        {
          "internalType": "bool",
          "name": "",
          "type": "bool"
        }
      ],
      "stateMutability": "view",
      "type": "function"
    },
    {
      "inputs": [
        {
          "internalType": "address",
          "name": "_address",
          "type": "address"
        }
      ],
      "name": "isPauser",
      "outputs": [
        {
          "internalType": "bool",
          "name": "",
          "type": "bool"
        }
      ],
      "stateMutability": "view",
      "type": "function"
    },
    {
      "inputs": [
        {
          "internalType": "address",
          "name": "",
          "type": "address"
        }
      ],
      "name": "isPauserAddress",
      "outputs": [
        {
          "internalType": "bool",
          "name": "",
          "type": "bool"
        }
      ],
      "stateMutability": "view",
      "type": "function"
    },
    {
      "inputs": [],
      "name": "isPublicDecryptAllowed",
      "outputs": [
        {
          "internalType": "bool",
          "name": "",
          "type": "bool"
        }
      ],
      "stateMutability": "view",
      "type": "function"
    },
    {
      "inputs": [],
      "name": "kmsGeneration",
      "outputs": [
        {
          "internalType": "uint256",
          "name": "",
          "type": "uint256"
        }
      ],
      "stateMutability": "view",
      "type": "function"
    },
    {
      "inputs": [
        {
          "internalType": "address",
          "name": "",
          "type": "address"
        }
      ],
      "name": "lastOperationTime",
      "outputs": [
        {
          "internalType": "uint256",
          "name": "",
          "type": "uint256"
        }
      ],
      "stateMutability": "view",
      "type": "function"
    },
    {
      "inputs": [
        {
          "internalType": "address",
          "name": "",
          "type": "address"
        }
      ],
      "name": "lastResetTime",
      "outputs": [
        {
          "internalType": "uint256",
          "name": "",
          "type": "uint256"
        }
      ],
      "stateMutability": "view",
      "type": "function"
    },
    {
      "inputs": [
        {
          "internalType": "uint256",
          "name": "valuationId",
          "type": "uint256"
        },
        {
          "internalType": "uint64",
          "name": "revealedValue",
          "type": "uint64"
        },
        {
          "internalType": "uint32",
          "name": "revealedConfidence",
          "type": "uint32"
        }
      ],
      "name": "markValuationRevealed",
      "outputs": [],
      "stateMutability": "nonpayable",
      "type": "function"
    },
    {
      "inputs": [],
      "name": "nextPropertyId",
      "outputs": [
        {
          "internalType": "uint256",
          "name": "",
          "type": "uint256"
        }
      ],
      "stateMutability": "view",
      "type": "function"
    },
    {
      "inputs": [],
      "name": "nextValuationId",
      "outputs": [
        {
          "internalType": "uint256",
          "name": "",
          "type": "uint256"
        }
      ],
      "stateMutability": "view",
      "type": "function"
    },
    {
      "inputs": [
        {
          "internalType": "address",
          "name": "",
          "type": "address"
        }
      ],
      "name": "operationCount",
      "outputs": [
        {
          "internalType": "uint256",
          "name": "",
          "type": "uint256"
        }
      ],
      "stateMutability": "view",
      "type": "function"
    },
    {
      "inputs": [],
      "name": "owner",
      "outputs": [
        {
          "internalType": "address",
          "name": "",
          "type": "address"
        }
      ],
      "stateMutability": "view",
      "type": "function"
    },
    {
      "inputs": [
        {
          "internalType": "address",
          "name": "",
          "type": "address"
        },
        {
          "internalType": "uint256",
          "name": "",
          "type": "uint256"
        }
      ],
      "name": "ownerProperties",
      "outputs": [
        {
          "internalType": "uint256",
          "name": "",
          "type": "uint256"
        }
      ],
      "stateMutability": "view",
      "type": "function"
    },
    {
      "inputs": [],
      "name": "pause",
      "outputs": [],
      "stateMutability": "nonpayable",
      "type": "function"
    },
    {
      "inputs": [
        {
          "internalType": "uint256",
          "name": "",
          "type": "uint256"
        }
      ],
      "name": "pauserAddresses",
      "outputs": [
        {
          "internalType": "address",
          "name": "",
          "type": "address"
        }
      ],
      "stateMutability": "view",
      "type": "function"
    },
    {
      "inputs": [
        {
          "internalType": "uint256",
          "name": "",
          "type": "uint256"
        }
      ],
      "name": "properties",
      "outputs": [
        {
          "internalType": "euint32",
          "name": "area",
          "type": "bytes32"
        },
        {
          "internalType": "euint32",
          "name": "bedrooms",
          "type": "bytes32"
        },
        {
          "internalType": "euint32",
          "name": "bathrooms",
          "type": "bytes32"
        },
        {
          "internalType": "euint32",
          "name": "yearBuilt",
          "type": "bytes32"
        },
        {
          "internalType": "euint32",
          "name": "floorLevel",
          "type": "bytes32"
        },
        {
          "internalType": "euint32",
          "name": "locationScore",
          "type": "bytes32"
        },
        {
          "internalType": "bool",
          "name": "isActive",
          "type": "bool"
        },
        {
          "internalType": "address",
          "name": "owner",
          "type": "address"
        },
        {
          "internalType": "uint256",
          "name": "timestamp",
          "type": "uint256"
        }
      ],
      "stateMutability": "view",
      "type": "function"
    },
    {
      "inputs": [
        {
          "internalType": "uint256",
          "name": "",
          "type": "uint256"
        },
        {
          "internalType": "uint256",
          "name": "",
          "type": "uint256"
        }
      ],
      "name": "propertyValuations",
      "outputs": [
        {
          "internalType": "uint256",
          "name": "",
          "type": "uint256"
        }
      ],
      "stateMutability": "view",
      "type": "function"
    },
    {
      "inputs": [],
      "name": "protocolId",
      "outputs": [
        {
          "internalType": "uint256",
          "name": "",
          "type": "uint256"
        }
      ],
      "stateMutability": "pure",
      "type": "function"
    },
    {
      "inputs": [
        {
          "internalType": "uint256",
          "name": "propertyId",
          "type": "uint256"
        }
      ],
      "name": "reactivateProperty",
      "outputs": [],
      "stateMutability": "nonpayable",
      "type": "function"
    },
    {
      "inputs": [
        {
          "internalType": "uint32",
          "name": "_area",
          "type": "uint32"
        },
        {
          "internalType": "uint32",
          "name": "_bedrooms",
          "type": "uint32"
        },
        {
          "internalType": "uint32",
          "name": "_bathrooms",
          "type": "uint32"
        },
        {
          "internalType": "uint32",
          "name": "_yearBuilt",
          "type": "uint32"
        },
        {
          "internalType": "uint32",
          "name": "_floorLevel",
          "type": "uint32"
        },
        {
          "internalType": "uint32",
          "name": "_locationScore",
          "type": "uint32"
        }
      ],
      "name": "registerProperty",
      "outputs": [
        {
          "internalType": "uint256",
          "name": "",
          "type": "uint256"
        }
      ],
      "stateMutability": "nonpayable",
      "type": "function"
    },
    {
      "inputs": [
        {
          "internalType": "address",
          "name": "_pauser",
          "type": "address"
        }
      ],
      "name": "removePauser",
      "outputs": [],
      "stateMutability": "nonpayable",
      "type": "function"
    },
    {
      "inputs": [
        {
          "internalType": "bytes32",
          "name": "_encryptedValue",
          "type": "bytes32"
        }
      ],
      "name": "requestDecryption",
      "outputs": [
        {
          "internalType": "uint256",
          "name": "",
          "type": "uint256"
        }
      ],
      "stateMutability": "nonpayable",
      "type": "function"
    },
    {
      "inputs": [
        {
          "internalType": "uint256",
          "name": "valuationId",
          "type": "uint256"
        }
      ],
      "name": "requestValuationReveal",
      "outputs": [],
      "stateMutability": "nonpayable",
      "type": "function"
    },
    {
      "inputs": [
        {
          "internalType": "address",
          "name": "valuator",
          "type": "address"
        }
      ],
      "name": "revokeValuator",
      "outputs": [],
      "stateMutability": "nonpayable",
      "type": "function"
    },
    {
      "inputs": [
        {
          "internalType": "uint256",
          "name": "_requestId",
          "type": "uint256"
        },
        {
          "internalType": "bytes",
          "name": "_encryptedShare",
          "type": "bytes"
        },
        {
          "internalType": "bytes",
          "name": "_signature",
          "type": "bytes"
        }
      ],
      "name": "submitDecryptionResponse",
      "outputs": [],
      "stateMutability": "nonpayable",
      "type": "function"
    },
    {
      "inputs": [
        {
          "internalType": "uint256",
          "name": "propertyId",
          "type": "uint256"
        },
        {
          "internalType": "uint64",
          "name": "_estimatedValue",
          "type": "uint64"
        },
        {
          "internalType": "uint32",
          "name": "_confidenceScore",
          "type": "uint32"
        }
      ],
      "name": "submitValuation",
      "outputs": [
        {
          "internalType": "uint256",
          "name": "",
          "type": "uint256"
        }
      ],
      "stateMutability": "nonpayable",
      "type": "function"
    },
    {
      "inputs": [],
      "name": "unpause",
      "outputs": [],
      "stateMutability": "nonpayable",
      "type": "function"
    },
    {
      "inputs": [
        {
          "internalType": "uint256",
          "name": "_newGeneration",
          "type": "uint256"
        }
      ],
      "name": "updateKmsGeneration",
      "outputs": [],
      "stateMutability": "nonpayable",
      "type": "function"
    },
    {
      "inputs": [
        {
          "internalType": "uint256",
          "name": "",
          "type": "uint256"
        }
      ],
      "name": "valuations",
      "outputs": [
        {
          "internalType": "uint256",
          "name": "propertyId",
          "type": "uint256"
        },
        {
          "internalType": "euint64",
          "name": "estimatedValue",
          "type": "bytes32"
        },
        {
          "internalType": "euint32",
          "name": "confidenceScore",
          "type": "bytes32"
        },
        {
          "internalType": "address",
          "name": "valuator",
          "type": "address"
        },
        {
          "internalType": "uint256",
          "name": "timestamp",
          "type": "uint256"
        },
        {
          "internalType": "bool",
          "name": "isRevealed",
          "type": "bool"
        },
        {
          "internalType": "uint64",
          "name": "revealedValue",
          "type": "uint64"
        },
        {
          "internalType": "uint32",
          "name": "revealedConfidence",
          "type": "uint32"
        }
      ],
      "stateMutability": "view",
      "type": "function"
    }
  ],
  "bytecode": "0x608060405234801562000010575f80fd5b506040516200339b3803806200339b83398101604081905262000033916200046e565b620000d9620000d3604080516080810182525f808252602082018190529181018290526060810191909152506040805160808101825273687820221192c5b662b25367f70076a37bc79b6c815273848b0066793bcc60346da1f49049357399b8d595602082015273a02cda4ca3a71d7c46997716f4283aa851c2881291810191909152731364cbbf2cdf5032c47d8226a6f6fbd2afcdacac606082015290565b6200022c565b5f80546001600160a01b03191633178155600180805560025560038290556005805460ff1916905560078190555b825181101562000223576004838281518110620001285762000128620004c7565b6020908102919091018101518254600180820185555f9485529284200180546001600160a01b0319166001600160a01b03909216919091179055845190916006918690859081106200017e576200017e620004c7565b60200260200101516001600160a01b03166001600160a01b031681526020019081526020015f205f6101000a81548160ff021916908315150217905550828181518110620001d057620001d0620004c7565b60200260200101516001600160a01b03167f0ad15ebec79c7d7b2785c7b5d8a7df78be193da0f65dff2d7c539a0992d53e3742604051620002129190620004db565b60405180910390a260010162000107565b505050620004e8565b80517f9e7b61f58c47dc699ac88507c4f5bb9f121c03808c5676a8078fe583e464970080546001600160a01b03199081166001600160a01b039384161790915560208301517f9e7b61f58c47dc699ac88507c4f5bb9f121c03808c5676a8078fe583e46497018054831691841691909117905560408301517f9e7b61f58c47dc699ac88507c4f5bb9f121c03808c5676a8078fe583e46497028054831691841691909117905560608301517f9e7b61f58c47dc699ac88507c4f5bb9f121c03808c5676a8078fe583e46497038054909216921691909117905550565b50565b634e487b7160e01b5f52604160045260245ffd5b601f19601f83011681016001600160401b03811182821017156200034757620003476200030b565b6040525050565b5f6200035960405190565b90506200036782826200031f565b919050565b5f6001600160401b038211156200038757620003876200030b565b5060209081020190565b5f6001600160a01b0382165b92915050565b620003ae8162000391565b811462000308575f80fd5b80516200039d81620003a3565b5f620003dc620003d6846200036c565b6200034e565b83815290506020808201908402830185811115620003fc57620003fc5f80fd5b835b818110156200042257620004138782620003b9565b835260209283019201620003fe565b5050509392505050565b5f82601f8301126200044057620004405f80fd5b815162000452848260208601620003c6565b949350505050565b80620003ae565b80516200039d816200045a565b5f80604083850312156200048457620004845f80fd5b82516001600160401b038111156200049e576200049e5f80fd5b620004ac858286016200042c565b925050620004be846020850162000461565b90509250929050565b634e487b7160e01b5f52603260045260245ffd5b818152602081016200039d565b612ea580620004f65f395ff3fe608060405234801561000f575f80fd5b50600436106102e5575f3560e01c80638f48bd5b11610195578063cf04efcd116100e4578063e513af601161009e578063f4ab292811610079578063f4ab2928146107a7578063f6fe52ab146107b2578063f7b10808146107c5578063fcc0d9591461083e575f80fd5b8063e513af601461076c578063e73b171f14610775578063f385116d14610788575f80fd5b8063cf04efcd1461068b578063d3722d011461069e578063da1f12ab14610702578063dcaee5021461070a578063df408f631461072c578063dff37f1f1461074b575f80fd5b8063b4658f501161014f578063c801d7581161012a578063c801d75814610646578063c84cd8c014610652578063ca47a9f414610665578063cb64489714610678575f80fd5b8063b4658f50146105d7578063b7b188d1146105df578063bad0afaf146105e8575f80fd5b80638f48bd5b1461058b57806391136b651461059e578063afcf516f146105a6578063b184a332146105af578063b187bd26146105b7578063b416eaa5146105c4575f80fd5b80635d03d83e1161025157806374c5976c1161020b5780637ca28bc6116101e65780637ca28bc61461054b57806382dc1ec41461055e5780638456cb59146105715780638da5cb5b14610579575f80fd5b806374c5976c146105065780637780f6c8146105195780637adfe96e14610538575f80fd5b80635d03d83e1461040e57806363b2f3fa1461049057806366023f6c146104b55780636b2c0f55146104d75780636d8d2c6d146104ea5780637499888f146104f3575f80fd5b80633f4ba83a116102a25780633f4ba83a1461037157806340f0a05514610379578063423b86e41461039b57806346fbf68e146103bb5780634d479584146103f357806351858e2714610406575f80fd5b8063026fef7f146102e957806329c041e514610312578063351f12a914610335578063392a5ebc1461034b57806339500f341461035357806339c4001d1461035c575b5f80fd5b6102fc6102f73660046120df565b610851565b604051610309919061211b565b60405180910390f35b6103256103203660046120df565b610879565b6040516103099493929190612153565b61033e60025481565b6040516103099190612191565b61033e606481565b61033e60015481565b61036f61036a3660046121d1565b610a6c565b005b61036f610bbb565b61038c6103873660046120df565b610c4c565b60405161030993929190612217565b6103ae6103a93660046120df565b610cc1565b604051610309919061229b565b6103e66103c93660046122c0565b6001600160a01b03165f9081526006602052604090205460ff1690565b60405161030991906122dd565b61033e6104013660046120df565b610d72565b61036f610e62565b61047c61041c3660046120df565b60096020525f90815260409020805460018201546002830154600384015460048501546005909501549394929391926001600160a01b039091169160ff811690610100810467ffffffffffffffff1690600160481b900463ffffffff1688565b6040516103099897969594939291906122fb565b6104a361049e3660046120df565b610ecf565b60405161030996959493929190612372565b6103e66104c33660046122c0565b600a6020525f908152604090205460ff1681565b61036f6104e53660046122c0565b610fc1565b61033e60075481565b61036f61050136600461241a565b61117a565b61033e6105143660046124a1565b6111f7565b61033e6105273660046122c0565b60106020525f908152604090205481565b6102fc6105463660046120df565b611558565b61036f6105593660046120df565b6115a8565b61036f61056c3660046122c0565b611602565b61036f61173f565b5f546102fc906001600160a01b031681565b61033e61059936600461251a565b611790565b60045461033e565b61033e6103e881565b61033e603281565b6005546103e69060ff1681565b61036f6105d23660046120df565b6117bb565b61033e601481565b61033e610e1081565b6106356105f63660046120df565b5f908152600d6020526040902060018101546002820154600383015460048401546005909401546001600160a01b03909316949193909260ff90911691565b604051610309959493929190612550565b60055460ff16156103e6565b61036f6106603660046120df565b611818565b61036f6106733660046122c0565b611887565b6103ae6106863660046122c0565b6118fb565b61033e610699366004612592565b61199e565b6106f06106ac3660046120df565b600d6020525f908152604090208054600182015460028301546003840154600485015460059095015493946001600160a01b03909316939192909160ff9091169086565b604051610309969594939291906125b0565b61271161033e565b6103e66107183660046122c0565b60066020525f908152604090205460ff1681565b61033e61073a3660046122c0565b600e6020525f908152604090205481565b61075e6107593660046120df565b6119b7565b6040516103099291906125ff565b61033e60035481565b61036f6107833660046122c0565b611a8a565b61033e6107963660046122c0565b600f6020525f908152604090205481565b60055460ff166103e6565b61036f6107c03660046120df565b611afb565b6108296107d33660046120df565b60086020525f90815260409020805460018201546002830154600384015460048501546005860154600687015460079097015495969495939492939192909160ff82169161010090046001600160a01b03169089565b6040516103099998979695949392919061261a565b61033e61084c3660046121d1565b611ba6565b60048181548110610860575f80fd5b5f918252602090912001546001600160a01b0316905081565b5f8181526008602052604081206006015481908190819060ff166108b85760405162461bcd60e51b81526004016108af906126c8565b60405180910390fd5b5f8581526008602052604090206006015461010090046001600160a01b03163314806108ed57505f546001600160a01b031633145b6109095760405162461bcd60e51b81526004016108af906126fb565b5f858152600c602090815260408083208054825181850281018501909352808352919290919083018282801561095c57602002820191905f5260205f20905b815481526020019060010190808311610948575b5050505050905080515f0361097d575f805f80945094509450945050610a65565b5f805f805b8451811015610a24575f60095f8784815181106109a1576109a161270b565b602002602001015181526020019081526020015f209050806005015f9054906101000a900460ff1615610a1b5760058101546109ec90610100900467ffffffffffffffff1686612733565b6005820154909550610a0b90600160481b900463ffffffff1685612733565b935082610a1781612746565b9350505b50600101610982565b50805f03610a42575f805f8651975097509750975050505050610a65565b6001610a4e8285612772565b610a588385612772565b9199509750955093505050505b9193509193565b60055460ff1615610a8f5760405162461bcd60e51b81526004016108af906127ac565b5f8381526009602052604090206004810154610abd5760405162461bcd60e51b81526004016108af906127e4565b600581015460ff1615610ae25760405162461bcd60e51b81526004016108af90612819565b60038101546001600160a01b0316331480610b1c575080545f9081526008602052604090206006015461010090046001600160a01b031633145b610b385760405162461bcd60e51b81526004016108af9061285b565b600581018054600168ffffffffffffffffff1990911661010067ffffffffffffffff871602171763ffffffff60481b1916600160481b63ffffffff85160217905560405184907fd9b92154d69505a6383ff08383c5769d60836f3b0536386ffab112be112b3c9e90610bad908690869061286b565b60405180910390a250505050565b5f546001600160a01b03163314610be45760405162461bcd60e51b81526004016108af906126fb565b60055460ff16610c065760405162461bcd60e51b81526004016108af906128a5565b6005805460ff1916905560405133907f107553d8191d85b405879cf752997865edd48d94e20bda4dd27223c94b31a7cc90610c42904290612191565b60405180910390a2565b5f8181526008602052604081206006015481908190849061010090046001600160a01b03163314610c8f5760405162461bcd60e51b81526004016108af906128dc565b5050505f918252506008602090815260408083206006810154600790910154600c90935292205460ff90921692909190565b5f8181526008602052604090206006015460609061010090046001600160a01b0316331480610cf957505f546001600160a01b031633145b610d155760405162461bcd60e51b81526004016108af906126fb565b5f828152600c602090815260409182902080548351818402810184019094528084529091830182828015610d6657602002820191905f5260205f20905b815481526020019060010190808311610d52575b50505050509050919050565b5f8060075f8154610d8290612746565b91829055506040805160c08101825282815233602080830182815283850189815242606086018181525f608088018181526003805460a08b019081528c8452600d909852918a90209851895594516001890180546001600160a01b0319166001600160a01b03909216919091179055925160028801555186830155915160048601805460ff191691151591909117905591516005909401939093555492519394509284927f5b585d7dd6e029cb6fdb2ed1aab57d9595373d52232357d506198068a075e7d092610e54928991906128ec565b60405180910390a392915050565b335f9081526006602052604090205460ff16610e905760405162461bcd60e51b81526004016108af9061291b565b6005805460ff1916600117905560405133907f80170b5fcdd2bf1e0660ef4b8851f86685f64d41b1a19de1471947ece8725aac90610c42904290612191565b5f81815260096020526040812060048101548291829182918291829190610f085760405162461bcd60e51b81526004016108af906127e4565b60038101546001600160a01b0316331480610f42575080545f9081526008602052604090206006015461010090046001600160a01b031633145b80610f5657505f546001600160a01b031633145b610f725760405162461bcd60e51b81526004016108af906126fb565b805460038201546004830154600590930154919a6001600160a01b03909116995091975060ff81169650610100810467ffffffffffffffff169550600160481b900463ffffffff169350915050565b5f546001600160a01b03163314610fea5760405162461bcd60e51b81526004016108af906126fb565b6001600160a01b0381165f9081526006602052604090205460ff166110215760405162461bcd60e51b81526004016108af9061291b565b6001600160a01b0381165f908152600660205260408120805460ff191690555b60045481101561113557816001600160a01b0316600482815481106110685761106861270b565b5f918252602090912001546001600160a01b03160361112d57600480546110919060019061292b565b815481106110a1576110a161270b565b5f91825260209091200154600480546001600160a01b0390921691839081106110cc576110cc61270b565b905f5260205f20015f6101000a8154816001600160a01b0302191690836001600160a01b0316021790555060048054806111085761110861293e565b5f8281526020902081015f1990810180546001600160a01b0319169055019055611135565b600101611041565b50806001600160a01b03167f09d663ecc0eac31928bc933e50d7b947f6c93e150383c8c0b317c437a0f0a12d4260405161116f9190612191565b60405180910390a250565b5f858152600d602052604090205485146111a65760405162461bcd60e51b81526004016108af90612976565b336001600160a01b0316857f7c928c5fcc307a0be08cab90a20b1e1233adb2226579e4118fb62ee51801318f86868686426040516111e89594939291906129b1565b60405180910390a35050505050565b6005545f9060ff161561121c5760405162461bcd60e51b81526004016108af906127ac565b335f9081526010602052604090205461123890610e1090612733565b42111561125e57335f908152600f60209081526040808320839055601090915290204290555b335f908152600f602052604090205460321161128c5760405162461bcd60e51b81526004016108af90612a2f565b335f908152600f602052604081208054916112a683612746565b9091555050335f908152600e60205260409020429055606463ffffffff831611156112e35760405162461bcd60e51b81526004016108af90612a71565b5f8763ffffffff16116113085760405162461bcd60e51b81526004016108af90612ab3565b6107088463ffffffff161161132f5760405162461bcd60e51b81526004016108af90612af5565b335f908152600b60205260409020546103e81161135e5760405162461bcd60e51b81526004016108af90612b44565b5f61136888611f39565b90505f61137488611f39565b90505f61138088611f39565b90505f61138c88611f39565b90505f61139888611f39565b90505f6113a488611f39565b600180549192505f9190826113b883612746565b90915550604080516101208101825289815260208082018a81528284018a8152606084018a8152608085018a815260a086018a8152600160c088018181523360e08a0181815242610100808d019182525f8f815260088d528e81209d518e559a518d870155985160028d0155965160038c0155945160048b0155925160058a01555160068901805494516001600160a81b0319909516911515610100600160a81b031916919091176001600160a01b039094169095029290921790935590516007909501949094558152600b82529283208054928301815583529091200181905590506114a487611f51565b506114ae86611f51565b506114b885611f51565b506114c284611f51565b506114cc83611f51565b506114d682611f51565b506114e18733611f60565b506114ec8633611f60565b506114f78533611f60565b506115028433611f60565b5061150d8333611f60565b506115188233611f60565b50604051339082907ff16e2a0ca5373d3b3c5e53640bf2953ea25184f229ba20d421b5fc6a635e3945905f90a396505050505050505b9695505050505050565b6004545f90821061157b5760405162461bcd60e51b81526004016108af90612b7c565b6004828154811061158e5761158e61270b565b5f918252602090912001546001600160a01b031692915050565b5f81815260086020526040902060060154819061010090046001600160a01b031633146115e75760405162461bcd60e51b81526004016108af906128dc565b505f908152600860205260409020600601805460ff19169055565b5f546001600160a01b0316331461162b5760405162461bcd60e51b81526004016108af906126fb565b6001600160a01b0381166116515760405162461bcd60e51b81526004016108af90612bb7565b6001600160a01b0381165f9081526006602052604090205460ff16156116895760405162461bcd60e51b81526004016108af90612bec565b6004546014116116ab5760405162461bcd60e51b81526004016108af90612c2e565b6004805460018082019092557f8a35acfbc15ff81a39ae7d344fd709f28e8600b4aa8c65c6b64bfe7fe36bd19b0180546001600160a01b0319166001600160a01b0384169081179091555f8181526006602052604090819020805460ff191690931790925590517f0ad15ebec79c7d7b2785c7b5d8a7df78be193da0f65dff2d7c539a0992d53e379061116f904290612191565b335f9081526006602052604090205460ff1661176d5760405162461bcd60e51b81526004016108af9061291b565b60055460ff1615610e905760405162461bcd60e51b81526004016108af90612c61565b600b602052815f5260405f2081815481106117a9575f80fd5b905f5260205f20015f91509150505481565b5f81815260086020526040902060060154819061010090046001600160a01b031633146117fa5760405162461bcd60e51b81526004016108af906128dc565b505f908152600860205260409020600601805460ff19166001179055565b5f546001600160a01b031633146118415760405162461bcd60e51b81526004016108af906126fb565b60038054908290556040517f81a4fe1759d58af96859f5799571b46cb438e5215a188511956a062695eb027c9061187b90839085906125ff565b60405180910390a15050565b5f546001600160a01b031633146118b05760405162461bcd60e51b81526004016108af906126fb565b6001600160a01b0381165f818152600a6020526040808220805460ff19166001179055517f3154b4784b7a606a4e8594e5c2aade1d60c2c2295f43c84e114d3c8bd30a3b089190a250565b6060336001600160a01b038316148061191d57505f546001600160a01b031633145b6119395760405162461bcd60e51b81526004016108af906126fb565b6001600160a01b0382165f908152600b602090815260409182902080548351818402810184019094528084529091830182828015610d6657602002820191905f5260205f2090815481526020019060010190808311610d525750505050509050919050565b600c602052815f5260405f2081815481106117a9575f80fd5b6005545f90819060ff16156119de5760405162461bcd60e51b81526004016108af906127ac565b5f8381526009602052604090206004810154611a0c5760405162461bcd60e51b81526004016108af906127e4565b60038101546001600160a01b0316331480611a46575080545f9081526008602052604090206006015461010090046001600160a01b031633145b80611a5a57505f546001600160a01b031633145b611a765760405162461bcd60e51b81526004016108af90612ca3565b600181015460028201549250925050915091565b5f546001600160a01b03163314611ab35760405162461bcd60e51b81526004016108af906126fb565b6001600160a01b0381165f818152600a6020526040808220805460ff19169055517f825a89863a561066b5720d4aa7eb8a4db0ecc454d5febe7e9066ab8f9c1e88139190a250565b60055460ff1615611b1e5760405162461bcd60e51b81526004016108af906127ac565b5f8181526009602052604090206004810154611b4c5760405162461bcd60e51b81526004016108af906127e4565b60038101546001600160a01b0316331480611b86575080545f9081526008602052604090206006015461010090046001600160a01b031633145b611ba25760405162461bcd60e51b81526004016108af9061285b565b5050565b335f908152600a602052604081205460ff16611bd45760405162461bcd60e51b81526004016108af90612ce5565b60055460ff1615611bf75760405162461bcd60e51b81526004016108af906127ac565b335f90815260106020526040902054611c1390610e1090612733565b421115611c3957335f908152600f60209081526040808320839055601090915290204290555b335f908152600f6020526040902054603211611c675760405162461bcd60e51b81526004016108af90612a2f565b335f908152600f60205260408120805491611c8183612746565b9091555050335f908152600e60209081526040808320429055868352600890915290206006015460ff16611cc75760405162461bcd60e51b81526004016108af906126c8565b60648263ffffffff161115611cee5760405162461bcd60e51b81526004016108af90612d27565b5f8367ffffffffffffffff1611611d175760405162461bcd60e51b81526004016108af90612d69565b5f848152600c6020526040902054606411611d445760405162461bcd60e51b81526004016108af90612dbb565b5f611d4e84611f72565b90505f611d5a84611f39565b600280549192505f919082611d6e83612746565b909155506040805161010080820183528a82526020808301888152838501888152336060860190815242608087019081525f60a0880181815260c0890182815260e08a018381528c8452600989528b84209a518b5596516001808c0191909155955160028b0155935160038a0180546001600160a01b0319166001600160a01b03909216919091179055915160048901559051600590970180549251945168ffffffffffffffffff1990931697151568ffffffffffffffff0019169790971767ffffffffffffffff9094169095029290921763ffffffff60481b1916600160481b63ffffffff90931692909202919091179093558b8252600c815292812080549283018155815291909120018190559050611e8883611f51565b50611e9282611f51565b50611e9d8333611f60565b50611ea88233611f60565b505f87815260086020526040902060060154611ed390849061010090046001600160a01b0316611f60565b505f87815260086020526040902060060154611efe90839061010090046001600160a01b0316611f60565b506040513390889083907fd5353fa3ef94edce12f242792ba11c2031e4c4609965b830a9d193437b63f342905f90a4925050505b9392505050565b5f611f4b8263ffffffff166004611f84565b92915050565b5f611f5c8230612041565b5090565b5f611f6b8383612041565b5090919050565b5f611f4b8267ffffffffffffffff1660055b7f9e7b61f58c47dc699ac88507c4f5bb9f121c03808c5676a8078fe583e464970154604051639cd07acb60e01b81525f917f9e7b61f58c47dc699ac88507c4f5bb9f121c03808c5676a8078fe583e4649700916001600160a01b0390911690639cd07acb90611ff99087908790600401612e11565b6020604051808303815f875af1158015612015573d5f803e3d5ffd5b505050506040513d601f19601f820116820180604052508101906120399190612e37565b949350505050565b7f9e7b61f58c47dc699ac88507c4f5bb9f121c03808c5676a8078fe583e46497008054604051635ca4b5b160e11b81526001600160a01b039091169063b9496b62906120939086908690600401612e54565b5f604051808303815f87803b1580156120aa575f80fd5b505af11580156120bc573d5f803e3d5ffd5b50505050505050565b805b81146120d1575f80fd5b50565b8035611f4b816120c5565b5f602082840312156120f2576120f25f80fd5b611f3283836120d4565b5f6001600160a01b038216611f4b565b612115816120fc565b82525050565b60208101611f4b828461210c565b801515612115565b67ffffffffffffffff8116612115565b63ffffffff8116612115565b80612115565b608081016121618287612129565b61216e6020830186612131565b61217b6040830185612141565b612188606083018461214d565b95945050505050565b60208101611f4b828461214d565b67ffffffffffffffff81166120c7565b8035611f4b8161219f565b63ffffffff81166120c7565b8035611f4b816121ba565b5f805f606084860312156121e6576121e65f80fd5b6121f085856120d4565b92506121ff85602086016121af565b915061220e85604086016121c6565b90509250925092565b606081016122258286612129565b612232602083018561214d565b612039604083018461214d565b612249828261214d565b5060200190565b60200190565b5f61225f825190565b80845260209384019383015f5b82811015612291578151612280878261223f565b96505060208201915060010161226c565b5093949350505050565b60208082528101611f328184612256565b6120c7816120fc565b8035611f4b816122ac565b5f602082840312156122d3576122d35f80fd5b611f3283836122b5565b60208101611f4b8284612129565b5f81611f4b565b612115816122eb565b610100810161230a828b61214d565b612317602083018a6122f2565b61232460408301896122f2565b612331606083018861210c565b61233e608083018761214d565b61234b60a0830186612129565b61235860c0830185612131565b61236560e0830184612141565b9998505050505050505050565b60c08101612380828961214d565b61238d602083018861210c565b61239a604083018761214d565b6123a76060830186612129565b6123b46080830185612131565b6123c160a0830184612141565b979650505050505050565b5f8083601f8401126123df576123df5f80fd5b50813567ffffffffffffffff8111156123f9576123f95f80fd5b602083019150836001820283011115612413576124135f80fd5b9250929050565b5f805f805f60608688031215612431576124315f80fd5b61243b87876120d4565b9450602086013567ffffffffffffffff811115612459576124595f80fd5b612465888289016123cc565b9450945050604086013567ffffffffffffffff811115612486576124865f80fd5b612492888289016123cc565b92509250509295509295909350565b5f805f805f8060c087890312156124b9576124b95f80fd5b6124c388886121c6565b95506124d288602089016121c6565b94506124e188604089016121c6565b93506124f088606089016121c6565b92506124ff88608089016121c6565b915061250e8860a089016121c6565b90509295509295509295565b5f806040838503121561252e5761252e5f80fd5b61253884846122b5565b915061254784602085016120d4565b90509250929050565b60a0810161255e828861210c565b61256b602083018761214d565b612578604083018661214d565b6125856060830185612129565b61154e608083018461214d565b5f80604083850312156125a6576125a65f80fd5b61253884846120d4565b60c081016125be828961214d565b6125cb602083018861210c565b6125d8604083018761214d565b6125e5606083018661214d565b6125f26080830185612129565b6123c160a083018461214d565b6040810161260d828561214d565b611f32602083018461214d565b6101208101612629828c6122f2565b612636602083018b6122f2565b612643604083018a6122f2565b61265060608301896122f2565b61265d60808301886122f2565b61266a60a08301876122f2565b61267760c0830186612129565b61268460e083018561210c565b61269261010083018461214d565b9a9950505050505050505050565b60138152602081017250726f7065727479206e6f742061637469766560681b81529050612250565b60208082528101611f4b816126a0565b600e8152602081016d139bdd08185d5d1a1bdc9a5e995960921b81529050612250565b60208082528101611f4b816126d8565b634e487b7160e01b5f52603260045260245ffd5b634e487b7160e01b5f52601160045260245ffd5b80820180821115611f4b57611f4b61271f565b5f600182016127575761275761271f565b5060010190565b634e487b7160e01b5f52601260045260245ffd5b5f826127805761278061275e565b500490565b60128152602081017110dbdb9d1c9858dd081a5cc81c185d5cd95960721b81529050612250565b60208082528101611f4b81612785565b60138152602081017215985b1d585d1a5bdb881b9bdd08199bdd5b99606a1b81529050612250565b60208082528101611f4b816127bc565b60108152602081016f105b1c9958591e481c995d99585b195960821b81529050612250565b60208082528101611f4b816127f4565b60188152602081017f4e6f7420617574686f72697a656420746f2072657665616c000000000000000081529050612250565b60208082528101611f4b81612829565b604081016128798285612131565b611f326020830184612141565b600a81526020810169139bdd081c185d5cd95960b21b81529050612250565b60208082528101611f4b81612886565b6012815260208101712737ba10383937b832b93a3c9037bbb732b960711b81529050612250565b60208082528101611f4b816128b5565b60608101612225828661214d565b600c8152602081016b2737ba1030903830bab9b2b960a11b81529050612250565b60208082528101611f4b816128fa565b81810381811115611f4b57611f4b61271f565b634e487b7160e01b5f52603160045260245ffd5b600f8152602081016e125b9d985b1a59081c995c5d595cdd608a1b81529050612250565b60208082528101611f4b81612952565b82818337505f910152565b8183526020830192506129a5828483612986565b50601f01601f19160190565b606080825281016129c3818789612991565b905081810360208301526129d8818587612991565b905061154e604083018461214d565b602b8152602081017f52617465206c696d69742065786365656465642c20706c65617365207472792081526a30b3b0b4b7103630ba32b960a91b602082015290505b60400190565b60208082528101611f4b816129e7565b601c8152602081017f4c6f636174696f6e2073636f7265206d75737420626520302d3130300000000081529050612250565b60208082528101611f4b81612a3f565b601b8152602081017f41726561206d7573742062652067726561746572207468616e2030000000000081529050612250565b60208082528101611f4b81612a81565b601c8152602081017f59656172206275696c74206d757374206265207265616c69737469630000000081529050612250565b60208082528101611f4b81612ac3565b60248152602081017f4d6178696d756d2070726f7065727469657320706572206f776e65722072656181526318da195960e21b60208201529050612a29565b60208082528101611f4b81612b05565b601381526020810172496e646578206f7574206f6620626f756e647360681b81529050612250565b60208082528101611f4b81612b54565b601681526020810175496e76616c696420706175736572206164647265737360501b81529050612250565b60208082528101611f4b81612b8c565b60108152602081016f20b63932b0b23c9030903830bab9b2b960811b81529050612250565b60208082528101611f4b81612bc7565b60178152602081017f4d6178696d756d2070617573657273207265616368656400000000000000000081529050612250565b60208082528101611f4b81612bfc565b600e8152602081016d105b1c9958591e481c185d5cd95960921b81529050612250565b60208082528101611f4b81612c3e565b60188152602081017f4e6f7420617574686f72697a656420746f20616363657373000000000000000081529050612250565b60208082528101611f4b81612c71565b60178152602081017f4e6f7420617574686f72697a65642076616c7561746f7200000000000000000081529050612250565b60208082528101611f4b81612cb3565b601e8152602081017f436f6e666964656e63652073636f7265206d75737420626520302d313030000081529050612250565b60208082528101611f4b81612cf5565b601a8152602081017f56616c756174696f6e206d75737420626520706f73697469766500000000000081529050612250565b60208082528101611f4b81612d37565b60278152602081017f4d6178696d756d2076616c756174696f6e73207065722070726f7065727479208152661c995858da195960ca1b60208201529050612a29565b60208082528101611f4b81612d79565b634e487b7160e01b5f52602160045260245ffd5b605481106120d1576120d1612dcb565b80612df981612ddf565b919050565b5f611f4b82612def565b61211581612dfe565b60408101612e1f828561214d565b611f326020830184612e08565b8051611f4b816120c5565b5f60208284031215612e4a57612e4a5f80fd5b611f328383612e2c565b60408101612e62828561214d565b611f32602083018461210c56fea26469706673582212205d62203df6990ac2b0843b41feff33bec318bf7a15168e1f6ebdd76e1eaba33d64736f6c63430008180033",
  "linkReferences": {},
  "deployedLinkReferences": {}
}